:020000040800F2
:10000000704500209D010008BD250008A9020008D8
:10001000B9250008E10B0008DD2F000800000000F2
:10002000000000000000000000000000AF01000818
:10003000E50B000800000000EF010008B5280008EB
:10004000B7010008B7010008B7010008B7010008B0
:10005000B7010008B7010008B7010008B7010008A0
:10006000B7010008B7010008B7010008B701000890
:10007000B7010008B7010008B7010008B701000880
:10008000B7010008B7010008B7010008B701000870
:10009000B7010008B7010008B7010008B701000860
:1000A000B7010008B7010008B7010008B701000850
:1000B000B7010008B7010008B7010008B701000840
:1000C000B7010008B7010008B7010008B701000830
:1000D000B7010008B7010008B7010008B701000820
:1000E000B7010008B7010008B7010008B701000810
:1000F000B7010008B7010008B7010008B701000800
:10010000B7010008B7010008B7010008B7010008EF
:10011000B7010008B7010008B7010008B7010008DF
:10012000B7010008B7010008B7010008B7010008CF
:10013000B7010008B7010008B7010008B7010008BF
:10014000B7010008B7010008B7010008B7010008AF
:10015000B7010008B7010008B7010008B70100089F
:10016000B7010008B7010008B7010008B70100088F
:10017000B7010008B70100080000000000000000FF
:10018000B7010008B7010008DFF80CD000F010FC40
:1001900000480047E10900087045002006488047F4
:1001A00006480047FEE7FEE7FEE7FEE7FEE7FEE75C
:1001B000FEE7FEE7FEE7FEE7092A000889010008DE
:1001C000EFF3108072B6704780F310887047444A8E
:1001D0001368012B04D04FF001031360414A1060F3
:1001E000414A116041484FF0805101607047EFF380
:1001F000108272B63A48016851B34FF000010160B5
:100200003848016891B1EFF309811EF0100F08BF63
:1002100021ED108B21E9F00F4FF000041EF0100FBC
:1002200008BF012441F8044D006801602E490968A7
:10023000096808C9B1E8F00F002B18BF00F05EB8DC
:1002400081F309884EF0100E002B18BF2EF0100E0F
:1002500082F310884EF0040E704723490860EFF3D4
:10026000148222F0040282F314881E494FF0000029
:1002700008601B494FF0010008601D481D49D0F877
:10028000002041EA0201016018484FF080510160EE
:1002900019480068006880F3088861B662B6BFF349
:1002A0004F8FBFF36F8F70471EF0040F0CBFEFF33B
:1002B0000880EFF3098020E9F00F40F804ED40F8E2
:1002C00004ED1EF0040F0CBF80F3088880F309884A
:1002D00000B504F03BFA5DF804EB4EF0040E7047F5
:1002E00054410020C03E0020C83E002004ED00E044
:1002F00020ED00E00000FFFF08ED00E0B1EC088B0E
:10030000B1EC08CBFFF79CBF2DE9F05F054600205C
:1003100092469B4688460646814640241BE0284676
:1003200041464746224600F0EEF953465A46C01A67
:10033000914110D311461846224600F0D5F92D1AE6
:1003400067EB01084F4622460120002100F0CCF95E
:1003500017EB00094E41201EA4F10104DFDC4846E2
:1003600031462A46434600F000B830BCBDE8C09F85
:10037000D2B201E000F8012B491EFBD270470022E7
:10038000F6E710B513460A4604461946FFF7F0FF94
:10039000204610BD10B5044604E00B7800F8013B80
:1003A00003B1491C521EF8D2204610BD421C10F861
:1003B000011B0029FBD1801A704710B5002200E014
:1003C000521C835C8C5CA34201D1002BF8D1D8B2C3
:1003D000E1B2401A10BD30B505460020034600E0EA
:1003E0005B1C934205D2EC5CC85C201A01D1002C46
:1003F000F6D130BD2DE9FE4F804681EA0300C00FE3
:100400000C46009021F0004123F00045B8EB0200BB
:10041000A94105D24046214690461C460B4602465D
:1004200023F00040104347D0270DC7F30A00C3F361
:100430000A510290401A019040286BDAC3F313006E
:1004400040F4801B0098924620B10023D2EB030AAF
:1004500063EB0B0B01985946C0F14002504600F087
:1004600043F906460D4650465946019A00F05BF99D
:1004700010EB08006141002487EA115284EAE77317
:100480001A4340D0009A62B3019A012A4FEA0752F8
:1004900015DC001B61EB02014FF0004202EA07523B
:1004A000CDE90042001C41F5801132462B4600F098
:1004B00092F903B000F045B840462146F9E7001B29
:1004C00061EB0201001C41F5801300185B4120180C
:1004D000A2F5001747EB030140EAD570B6196D414C
:1004E00011E06D084FEA360645EAC0754FEA07523B
:1004F000001B61EB0201001C41F5801149084FEA25
:1005000030000019514132462B4603B000F01CB8B0
:1005100000F052B90098012240000023D0EB020203
:1005200063EBE073009821464FEAE074B8EB0000FB
:1005300061EB0401E9E783F000435BE781F00041F0
:1005400058E730BCBDE8C08F30BCBDE8C04FFFF7F6
:10055000DFBF2DE9FE4F81EA030404F0004421F0DF
:10056000004100944FF0000B23F0004350EA0104D7
:100570005ED052EA03045BD0C3F30A54C1F30A55B8
:100580002C44A4F2F3340194A0FB0254C1F31301F0
:1005900041F48011C3F3130343F4801301FB0244BD
:1005A00000FB034E840A970A44EA815447EA8357C2
:1005B000A4FB076802958D0A05FB07854FEA932C7B
:1005C00004FB0C542705029D4FEA065847EA1637EC
:1005D000B5EB08056EEB070C870E920E47EA811704
:1005E00042EA8312A7FB0201B6EB0B0164EB0004A5
:1005F0002B0D43EA0C335E1844EB1C50DA4651468F
:10060000E7FB0201C5F313044FEA0B3343EA14532B
:100610004FEA0432019C43EA0603A4F10C0402945D
:10062000009CCDE900B400F0D6F803B000F003B8A8
:1006300000200146F9E730BCBDE8C08F0EB5C10F00
:1006400080EAE0700844CA07002140F233438DE895
:100650000E000A460B4600F0BEF803B000BD00F0E5
:10066000004230F000400AD0C10D01F56071C0F3C6
:10067000160042EA0151C2084007114370470020AA
:100680000146704701F0004330B421F0004150EAC8
:10069000010206D00A0DA2F56072C1F31301002A0F
:1006A00002DC30BC00207047440F44EAC104C100A2
:1006B000E01830BC00EBC25000F047B830B50B4634
:1006C000014600202022012409E021FA02F59D4282
:1006D00005D303FA02F5491B04FA02F52844151E56
:1006E000A2F10102F1DC30BD202A04DB203A00FA3D
:1006F00002F1002070479140C2F1200320FA03F379
:10070000194390407047202A04DB203A21FA02F076
:100710000021704721FA02F3D040C2F1200291403B
:10072000084319467047202A06DBCB17203A41FAC6
:1007300002F043EAE07306E041FA02F3D040C2F16E
:10074000200291400843194670470029A8BF70470E
:10075000401C490008BF20F00100704710B4B0FAF7
:1007600080FC00FA0CF050EA010404BF10BC704792
:1007700049B1CCF1200421FA04F411FA0CF118BFAC
:10078000012121430843A3EB0C01CB1D4FEA00617B
:100790004FEA102042BF002010BC704700EBC3504E
:1007A00010440029A4BF10BC7047401C490008BF7A
:1007B00020F0010010BC704710B5141E73F1000446
:1007C00008DA401C41F1000192185B411A4301D143
:1007D00020F0010010BD2DE9F04D92469B4611B16D
:1007E000B1FA81F202E0B0FA80F220329046FFF7CF
:1007F0007BFF04460F4640EA0A0041EA0B015346DC
:100800005A46084313D0114653EA010019D0C8F1E3
:1008100040025046FFF777FF05460E4650465946C0
:100820004246FFF761FF084305D0012004E020465F
:100830003946BDE8F08D0020054346EAE0762C43BA
:1008400037430A986305E40AA0EB08000022FD0A7A
:1008500044EA47540A3002D500200146E9E7010581
:1008600010196941DDE9084500196941BDE8F04DFD
:10087000A2E72DE9F04D81EA030404F0004B21F0DA
:10088000004514464FF0000A23F0004150EA0502EB
:1008900020D054EA01021DD0C5F30A570246C5F321
:1008A0001303C1F31300C1F30A5640F4801543F457
:1008B0008013A7EB0608101BD64608F2FD3873EB31
:1008C000050002D308F1010801E092185B41B8F17C
:1008D000000F03DA00200146BDE8F08D00204FF440
:1008E0008011064684460EE0171B73EB050705D3FF
:1008F000121B63EB050306434CEA010C49084FEA5F
:10090000300092185B4150EA0107EDD152EA030032
:1009100012D082EA040083EA0501084305D0101BC7
:10092000AB4106D20122002306E000224FF0004333
:1009300002E06FF0010253101AEB06004CEB085175
:1009400010EB0A0041EB0B01BDE8F04DFFF734BF9F
:10095000C1F30A52C1F3130140F2FF3341F4801195
:100960009A4202DA00200146704740F233439A422D
:10097000A2F2334202DC5242FFF7C5BEFFF7B4BE1B
:1009800030B5041E71F1000404DB4FF00044404216
:1009900064EB0101141E73F1000405DB1C464FF0EB
:1009A0000043524263EB0403994208BF904230BDBA
:1009B0001CB509480090094801900546009C06E0D6
:1009C000E06840F0010394E8070098471034AC4217
:1009D000F6D3FFF7DDFB0000A06E0008C06E000834
:1009E00080B582B0FFF7ECFB03F042FE04F0B0FBF1
:1009F00004F0F6FD04F0A4FD46F6BA5043F6F97192
:100A00004FF0140C4FF00A0EC0F60000C0F60001C3
:100A100000224FF48063CDE900EC04F0EBFD04F01C
:100A200031FF04F0E5FD04F06FFE04F0A1FD0020AD
:100A300002B080BDF0B583B005460020ADF80A00D5
:100A400002260DF10A0728463822A8230C46CDE9D4
:100A5000007601F01DFC78B94FF4967002F0B8FBF7
:100A60000820ADF80A00284621463822E123CDE9C6
:100A7000007601F00DFC10B1012003B0F0BD4FF481
:100A8000967002F0A5FB002003B0F0BD000000004E
:100A9000B0B52DED028B84B005460020ADF80E00F8
:100AA0004FF0020C0DF10E0E28463822AC230C46F6
:100AB000CDE900EC01F0ECFBB7EE008A40BB4FF053
:100AC000060C02AB284621463822CDF800C001F0C2
:100AD000D5FAE8B99DF80A109DF809009DF80B2099
:100AE000090141EA003002F0F0010843FFF7A6FDDA
:100AF0009FED0B0B53EC102BFFF72BFD9FED0A0B1B
:100B000053EC102BFFF725FDFFF7BCFD08EE100A94
:100B1000B0EE480A04B0BDEC028BB0BD00BF00BF10
:100B20000000000000005940000000000000B03E3E
:100B3000B0B52DED028B84B005460020ADF80E0057
:100B40004FF0020C0DF10E0E28463822AC230C4655
:100B5000CDE900EC01F09CFBB7EE008A70BB4FF0D2
:100B6000060C02AB284621463822CDF800C001F021
:100B700085FA18BB9DF80B009DF80C1000F00F00D3
:100B80009DF80D20000440EA01201044FFF756FDB7
:100B90009FED0D0B53EC102BFFF7DBFC9FED0C0BC7
:100BA00053EC102BFFF7D5FC9FED0B0B53EC102BE8
:100BB000FFF720FCFFF766FD08EE100AB0EE480ACA
:100BC00004B0BDEC028BB0BD000000000000694025
:100BD000000000000000B03E00000000000049C01E
:100BE000FEE7000070470000EFF3108072B600BF10
:100BF000FEE700002DE9F04F83B00E68002E00F0F4
:100C0000CF8000F1200241F6000C009200F138473D
:100C1000C4F6000C07224FEAB725604508BF06223C
:100C2000062D38BF4FEAB722002500274FF00008F5
:100C300001920AE00E6808F1010836FA08F207F19D
:100C4000020705F1040500F0AB80012202FA08FB5F
:100C500016EA0B09EED0D1F804A003220AF003062D
:100C6000741E012C02FA07FC11D88468D1F80CE03C
:100C700024EA0C040EFA07F2224382604268CAF3A7
:100C8000001422EA0B0204FA08F422434260032E05
:100C90000CD1C26ACAF3C00422EA0B0204FA08F4B7
:100CA0002243C262022E0AD01BE000BFC2688C68D9
:100CB00022EA0C02BC402243C260022E11D16FF026
:100CC000030202EA580A009A05F01C0452F80AE0EE
:100CD0000F230E69A3402EEA0303A640334342F8D4
:100CE0000A3002684B6822EA0C0203F00306BE4099
:100CF000324313F4403F02609CD041F26003C4F2DF
:100D000002031A6840F2004E42F001021A601A68AB
:100D1000C4F2010E02F001020292029A28F00302CC
:100D20004FF6084C7244CFF6FF7C52F80C3005F0B9
:100D30000C060F24B440A343019C04FA06F6334387
:100D400042F80C30DEF808204B6842EA090640F20F
:100D50000C4CDC0258BF22EA0906CEF80860C4F247
:100D6000010CDCF800209C0242EA090658BF22EA86
:100D70000906CCF80060DEF804209C0342EA09066C
:100D800058BF22EA0906CEF80460DEF80020DB0333
:100D900042EA090658BF22EA0906CEF8006049E790
:100DA00003B000F000B830BCBDE8C08F0069084057
:100DB00018BF0120704700001823002A08BF28230D
:100DC000C150704744F26810C2F2000000687047DA
:100DD00080B5032000F080F8002000F009F800281A
:100DE0001CBF012080BD00F031F8002080BD000054
:100DF00040F28401C2F200010978002904BF0120F9
:100E0000704710B5044640F20400C2F200004FF4EF
:100E10007A720068B2FBF1F1B0FBF1F000F0EAFF8A
:100E200001460F2C4FF001000ED8002918BF10BD4D
:100E30004FF0FF302146002200F022F840F28801F6
:100E40000020C2F200010C6010BD000082B041F22F
:100E50005800C4F20200816841F00101816081689C
:100E600001F0010101910199016841F08051016097
:100E7000006800F080500090009802B070470000B9
:100E800010B54EF60C5CCEF2000CDCF80030C3F36B
:100E9000022E8EF00704042C28BF0424BEF10303A5
:100EA0004FF0FF3E0EFA04F438BF0023A1439940EF
:100EB0000EFA03F39A43114300F1604200F00F036E
:100EC000090102F56442043B6344002848BF03F172
:100ED0000C02117010BD00004EF60C51CEF2000154
:100EE0000A684FF6FF031A4060F30A2242F080605E
:100EF00040F0FD700860704747F2000CC4F2000C2F
:100F0000DCF80020B0F5007F02F4C0602BD1B0F512
:100F1000007F26D0DCF80000012262F34A20CCF8E2
:100F2000000040F20400C2F200000068322358437F
:100F30004DF68363C4F21B33A0FB030302EB934023
:100F4000002200BFDCF81410013842F1000349050B
:100F500001D5002BF6D1DCF81400400544BF032076
:100F6000704700207047B0F5806FFAD0DCF80000C1
:100F7000022161F34A20CCF80000002070470000F5
:100F800047F20000C4F20000006800F4C06070473F
:100F90002DE9F04782B00446407841F28807000707
:100FA000C4F2020702D44FF0000A1FE0606E4FEA5D
:100FB000B050032800F298804FF0000ADFE800F0FC
:100FC0000207191F201D002101F0FAFA04E004F1C4
:100FD0002000002101F0B6FB8246BAF1000F11D1CA
:100FE0003868616E20F44000084338604FF0000814
:100FF00009E057F87C0C40F4803047F87C0CBAF1DB
:10100000000FEDD0D0466078C00627D5A06E4FEA1D
:10101000306003286FD8DFE800F00207171D201D9D
:10102000002101F0CDFA04E004F12000002101F0DC
:1010300089FB8246BAF1000F0FD13868A16E20F00B
:1010400040700843386009E057F87C0C40F4803069
:1010500047F87C0CBAF1000FEFD0D046A07880079B
:1010600001D4C24674E057F8300C5FEAC0090BD4D3
:1010700057F8300C40F0805047F8300C57F8300CDF
:1010800000F080500190019847F20005C4F200057D
:10109000286840F480702860FFF794FE064600BF81
:1010A0002868C00506D4FFF78DFE801B0328F7D300
:1010B0004FF0030ABAF1000F41D1B86810F4407044
:1010C0001FD0D4F8841088420BD0B868B96820F4D7
:1010D000407041F48031B960B96821F48031B96061
:1010E000B860C00710D11FE04FF0010ABAF1000F3D
:1010F0007FF488AF74E74FF0010ABAF1000FACD16A
:101100009BE70020C0070FD0FFF75CFE064641F2C8
:10111000893500BFB868800706D4FFF753FE801BEF
:10112000A842F7D34FF0030ABAF1000F07D1B8680D
:10113000D4F8841020F440700843C246B860B9F176
:10114000000F05D457F8300C20F0805047F8300CD1
:101150002068C10716D181071CD4410722D401079A
:1011600028D4C1062ED4810634D481053AD4410551
:1011700040D4410646D401064CD4C10552D4800463
:1011800058D471E03968A26B21F003011143396032
:101190008107E2D53968E26B21F00C011143396017
:1011A0004107DCD53968226C21F0300111433960E8
:1011B0000107D6D53968626C21F0C001114339604E
:1011C000C106D0D53968A26C21F440711143396051
:1011D0008106CAD53968E26C21F440611143396057
:1011E0008105C4D53968E26D21F44021114339608D
:1011F0004105BED53968226E21F440111143396092
:101200004106B8D53968226D21F440511143396047
:101210000106B2D53968626D21F44041114339604D
:10122000C105ACD53968A26D21F440311143396054
:10123000800419D53968E06E21F040610143B0F1B6
:10124000806F396009D0B0F1006F0DD157F87C0C78
:1012500040F4801047F87C0C06E0201D012101F0CD
:10126000AFF9002818BF8246A078000719D5396861
:10127000206F21F040610143B0F1806F396009D0E7
:10128000B0F1006F0DD157F87C0C40F4801047F896
:101290007C0C06E0201D012101F092F9002818BF06
:1012A0008246A078400719D53968606F21F0406107
:1012B0000143B0F1806F396009D0B0F1006F0DD1FA
:1012C00057F87C0C40F4801047F87C0C06E0201D99
:1012D000012101F075F9002818BF824660784006A8
:1012E00018D53968A06F21F040510143B0F1005F7B
:1012F000396007D0B0F1805F0CD1201D022101F0D0
:101300005FF904E004F12000022101F01BFA00283B
:1013100018BF82462068010405D53968E26F21F0C4
:10132000804111433960C00306D53868D4F8801075
:1013300020F0004008433860504602B0BDE8F08716
:101340002DE9F04381B0002800F0B48042F200089B
:10135000C4F202080446D8F800000D4600F0070069
:1013600088420DD2D8F8000020F007002843C8F8C2
:101370000000D8F8000000F00700A84240F09A8072
:10138000206841F208098107C4F202090DD5A1685D
:10139000D9F8002002F0F002914206D9D9F80020D5
:1013A00022F0F0021143C9F80010C0074DD12068A7
:1013B00081070DD5A168D9F8002002F0F002914212
:1013C00006D2D9F8002022F0F0021143C9F800102B
:1013D000D8F8001001F00701A9420CD9D8F8001084
:1013E00021F007012943C8F80010D8F8001001F0D7
:1013F0000701A9425ED1410707D5D9F80010E2687C
:1014000021F4E0611143C9F80010000708D5D9F8AC
:101410000000216920F4605040EAC100C9F80000D2
:10142000D9F80000D9F8041010F00C0005D00C28F1
:1014300034D101F00301012930D159F8081C090702
:101440000ED4D9F88C10090A0DE0606859F8081C10
:10145000A0B302282CD0032850D189012AD52FE02F
:1014600059F8081C090946F6A00201F00F01C0F660
:10147000000252F8211000280A4618BF00220C284A
:1014800058D1D9F8040000F00300022839D003280D
:1014900004BF41F20021C0F27A0136E0042865D091
:1014A000082869D141F200220021C0F27A02E6E761
:1014B000890305D4012001B0BDE8F0838907F9D57F
:1014C000D9F8001021F003010843C9F80000FFF724
:1014D00079FC064641F28837D9F80000616800F0CF
:1014E0000C00B0EB810F3FF462AFFFF76BFC801B89
:1014F000B842F1D9032001B0BDE8F0834905D9D540
:10150000DEE742F20041C0F2F401D9F80400D9F854
:101510000420C0F30210C2F306225143D9F804207C
:101520000130B1FBF0F0C2F34161022202EB410154
:10153000B0FBF1F2D9F8000046F68801C0F30310C1
:10154000C0F60001085C00F01F0022FA00F140F232
:101550008800C2F2000040F204020068C2F20002F9
:10156000116001B0BDE8F043FFF742BC42F2004217
:101570000021C0F2F40282E7002200217FE7000090
:1015800040F20400C2F200000068704740F204001C
:1015900041F20801C2F20000C4F2020100680968C9
:1015A00046F69802C1F30221C0F60002515C01F038
:1015B0001F01C8407047000040F2040041F20801DA
:1015C000C2F20000C4F202010068096846F69802FF
:1015D000C1F3C221C0F60002515C01F01F01C840F6
:1015E0007047000041F20C01C4F2020151F8040CF2
:1015F00010F00C02086805D00C2A40D100F003005E
:1016000001283CD151F80C0C000703D4D1F8880014
:10161000000A02E051F80C0C000946F6A00300F0A5
:101620000F00C0F6000353F82030002A184618BFF8
:1016300000200C2A18BF7047086800F00300022839
:1016400006D0032804BF41F20023C0F27A0303E06E
:1016500042F20043C0F2F40308680A68C0F30210C3
:10166000C2F30622096801305A43B2FBF0F0C1F31D
:101670004161022202EB4101B0FBF1F07047042A04
:1016800007D0082A0BD141F200200023C0F27A00D3
:10169000CFE742F200400023C0F2F400C9E7002087
:1016A0000023C6E7002804BF012070472DE9F0435E
:1016B00083B041F200060446C4F20206B068F16845
:1016C000227800F00C09D00601F0030819D4207824
:1016D000C00700F0F880B9F1080F40D0B9F10C0F45
:1016E00008BFB8F1030F3AD065683068B5F5A02F90
:1016F00000F0BF80B5F5803F40F0C28040F48030FC
:10170000C4E0B9F1000F1BD0B9F10C0F08BFB8F15C
:10171000010F15D0A1693068002979D040F001008F
:101720003060FFF74FFB05463068800700F182808C
:10173000FFF748FB401B02284FF00300F4D9FEE2FC
:101740003068800703D5A069002800F09D82256AD3
:10175000306800070CD4D6F89400000909E030681E
:10176000800340F1B0806068002840F0AC808BE2DC
:10177000306800F0F000854219D9B06DC0006BD41C
:10178000B06D40F08050B065B06D00F080500190B9
:101790000198FFF7F5FBB16D21F08051B165B0F50F
:1017A000007F5ED0802D40F2038203200AE2306881
:1017B000B9F1000F40F008003060306820F0F00010
:1017C00040EA050030607068E16920F47F4040EA3B
:1017D0000120706040F04682B06DC00000F11282BE
:1017E000B06D40F08050B065B06D00F08050029058
:1017F0000298FFF7C5FBB16D21F08051B165B0F5DE
:10180000007F00F00582802D40F2148203201BE24D
:1018100020F001003060FFF7D5FA054630688007F8
:101820007FF555AFFFF7CEFA401B02284FF00300BB
:10183000F4D984E2306840F0080030603068D4E9C0
:10184000071220F0F00010433060706820F47F40F1
:1018500040EA012070603AE7FFF792FBB0F5007FA5
:10186000A0D1812DC0F0AD810120A02D88BF022024
:10187000A8E140F480203060306840F4803005E01A
:1018800020F480303060306820F480203060FFF732
:1018900099FA002D054613D03068800313D4FFF762
:1018A00091FA401B64284FF00300F5D947E200BFCE
:1018B000FFF788FA401B64284FF0030000F23F82D4
:1018C00030688003F4D4207880072CD5B9F1040F58
:1018D0001BD0B9F10C0F08BFB8F1020F15D0E168A9
:1018E0003068002900F0518140F480703060FFF7CB
:1018F00069FA0546306840050ED4FFF763FA401BCD
:1019000002284FF00300F5D919E23068400503D5ED
:10191000E068002800F0B8817068216920F0F85074
:1019200040EA01607060207800075ED420784007AC
:1019300075D4A06A002800F07981022840F0B380B5
:10194000F068E16A00F003028A4240F0C380226B33
:101950006FF00F0300F0700103EB0212914240F0B0
:10196000B980616B00F4FE42B2EB012F40F0B2800F
:10197000A16B00F40032073918BF01218A4240F000
:10198000A980E26B0023CFF6E07303EA025200F471
:10199000C001A2F50012914240F09C80216C4FF0F2
:1019A0007E4202EA016100F0C06001F17E4188429E
:1019B00040F090803068800100F13881306840F05C
:1019C00080703060F06840F08070F060FFF7FAF9E6
:1019D00004463068800100F12981FFF7F3F9001B0C
:1019E00002284FF00300F4D9A9E16169D6F8940008
:1019F000002944D040F00100C6F89400FFF7E2F956
:101A0000054600BFD6F8940080078FD4FFF7DAF9B7
:101A1000401B0228F6D9032003B0BDE8F083B06D67
:101A20005FEAC00808D4B06D40F08050B065B06D7A
:101A300000F080500090009847F20007C4F20007C1
:101A40003868C00511D4386840F480703860FFF7FA
:101A5000B9F905463868C00507D4FFF7B3F9401B4C
:101A600002284FF00300F5D969E1A568D6F8900087
:101A7000052D4ED0012D55D140F001005AE020F047
:101A80000100C6F89400FFF79DF90546D6F89400CA
:101A900080077FF54BAFFFF795F9401B02284FF009
:101AA0000300F3D94BE1B9F10C0F00F0ED80306881
:101AB00020F080703060FFF785F9044630688001BF
:101AC00040F1AD80FFF77EF9001B02284FF00300C4
:101AD000F4D934E1B9F10C0F00F0D6803068400140
:101AE00000F1D2803068C00000F1CE80306820F074
:101AF00080703060FFF766F905463068800140F17C
:101B00002A81FFF75FF9401B02284FF00300F4D948
:101B100015E140F00400C6F89000D6F8900040F0BF
:101B2000010007E020F00100C6F89000D6F8900010
:101B300020F00400C6F89000FFF744F9002D054698
:101B400041F2883714D000BFD6F89000800713D434
:101B5000FFF738F9401BB8424FF00300F4D9EEE02C
:101B6000FFF730F9401BB8424FF0030000F2E78066
:101B7000D6F890008007F3D4B8F1000F3FF5D9AE46
:101B8000B06D20F08050B065D3E620F480703060F6
:101B9000FFF718F9054600BF306840057FF5C3AE72
:101BA000FFF710F9401B02284FF00300F4D9C6E0FC
:101BB000A5F17000B0FA80F04009802D08BF022026
:101BC00000E0002042F20001C4F202010A6822F0A3
:101BD000070202440A60096801F00701814253D1FB
:101BE000306840F0080030603068D4E9071220F017
:101BF000F00010433060706820F47F4040EA01201C
:101C000070602FE0FFF7BCF9B0F5007F7FF4FBAD0B
:101C1000812D18D30120A02D88BF022014E0F06888
:101C20004FF6FC71CFF6EE610840F060002003B083
:101C3000BDE8F083A5F17000B0FA80F04009802D76
:101C400008BF022000E0002042F20001C4F20201BD
:101C50000A6822F0070202440A60096801F00701DD
:101C6000814211D1B068F16810F00C0005D00C2849
:101C70002AD101F00301012926D13168090707D4CF
:101C8000D6F89410090A05E0012003B0BDE8F083FE
:101C90003168090946F6A00201F00F01C0F6000202
:101CA00052F8211000280A4618BF00220C282BD118
:101CB000F06800F00300022810D0032804BF41F2AE
:101CC0000021C0F27A010DE004283BD008283FD162
:101CD00041F200220021C0F27A02E7E742F200411D
:101CE000C0F2F401F068F268C0F30210C2F30622F9
:101CF0005143F2680130B1FBF0F0C2F341610222BE
:101D000002EB4101B0FBF1F2B06846F68801C0F386
:101D10000310C0F60001085C00F01F0022FA00F179
:101D200040F28800C2F2000040F204020068C2F2F1
:101D300000021160FFF75CF800283FF4C8AC03B064
:101D4000BDE8F08342F200420021C0F2F402ADE7A8
:101D500000220021AAE7F06848F28C01CFF69D111D
:101D600004F12C0700EA010C8ECFD4E90F546FF078
:101D70000F0040F2000E00EB0210CFF6E07E41EAC9
:101D80000C010EEA05554FF07E420843A5F50015FB
:101D900002EA046240EA032002F17E420EF5F014EA
:101DA000284304EA473710433843F060306840F076
:101DB00080703060F06840F08070F060FFF702F8EB
:101DC0000446306880013FF531AFFEF7FBFF001B92
:101DD00002284FF00300F4D9B1E700004EF21001E1
:101DE000CEF200010A68042822F0040208BF04327F
:101DF0000A607047411E0020B0EB116F1CBF01202C
:101E000070474EF21002CEF2000251604EF623519E
:101E1000CEF20001F0230B70072190601160704733
:101E200010B5C0B10446C06F28B9002084F878000E
:101E3000204600F025F82420E0672068616A0268E7
:101E400022F00102026011B1204600F029FE204676
:101E500000F0F8FE08B1012010BD2168486820F4A8
:101E600090404860886820F02A008860086840F048
:101E7000010220460A60BDE8104000F085BE000067
:101E8000B0B5A8B00446002501A888212795CDE962
:101E90002555CDE92355FEF772FA206843F6000177
:101EA000C4F20101884201D028B0B0BD01200190E8
:101EB00001A80F95FFF76CF8002818BFFEF794FEF5
:101EC00041F24C00C4F20200416941F48041416199
:101ED000416901F4804100910099016841F00101DC
:101EE0000160006823A900F00100009000984FF401
:101EF000C06023900220249000202590032026908B
:101F0000072027904FF09040FEF774FE28B0B0BD38
:101F10002DE9F04381B00446C06F202809D18846DE
:101F200000294FF0010018BF002A06D101B0BDE81A
:101F3000F083022001B0BDE8F0830020C4F88400E3
:101F400021201D46E0671646FEF73CFFA4F85060CE
:101F5000A4F85260A1680646B1F5805F02D12069FD
:101F600000284FD0C1464FF00008B4F8520050B3DB
:101F70006F1C0FE02068B9F1000F1DD019F8011B8C
:101F80000185B4F852000138A4F85200B4F85200A8
:101F9000C8B100BF2068C0690006EBD4002FF9D09B
:101FA000FEF710FF01464FF0030035B3891BA9422D
:101FB00023D820680068EDE738F8021B4FF00009CD
:101FC0006FF35F21DCE72068C069400614D46F1C02
:101FD00004E000BF2068C06940060DD4002FF9D08E
:101FE000FEF7F0FE01464FF0030035B1891BA94210
:101FF00003D820680068EDE700202021E16701B0E8
:10200000BDE8F0834FF00009AFE700002DE9F04193
:1020100086B041F24C00C4F20200016840F60004B0
:1020200041F0040101600168C4F6000401F00401FC
:1020300001910199016801AD41F00801016000685A
:10204000022600F00800019001984FF011080127C6
:10205000204629460196CDF80880CDE90376FEF7A3
:10206000C9FD4020CDE9010804F580602946CDE98D
:102070000376FEF7BFFD06B0BDE8F0812DE9F04F15
:1020800083B004468068DDF830A0029316460D4602
:102090008047216901208847E16801208847296835
:1020A0006420884721690020002788472968642028
:1020B0008847E16800208847A1687000461C88476F
:1020C000E1680020884700BF2169F0B2C009884755
:1020D000E168012076008847296864208847E16824
:1020E00000208847296864208847072F07F10107E7
:1020F000EAD3606880472169012088472968642005
:102100008847E168012088472968642088470026BD
:1021100060698047002800F08080B6F5FA6F06F10C
:102120000106F5D3A1680646884721690020884743
:10213000E16801204FF0010B884729686420884737
:10214000216901208847296864208847E1680020C8
:102150008847002E69D1BAF1000F64D0AAF10100BE
:102160004FF000084FF0000B01901AE0E1680020EA
:102170008847A068804721693046884729686420DD
:102180008847E16801208847296864208847E1681A
:1021900000208847029800F8089008F10108D0450F
:1021A00043D06068804701984FF000090027404500
:1021B0001AD100BFE1680020884729686420884759
:1021C000E16801200126884760698047002818BF20
:1021D0000120296840EA490964208847072F07F150
:1021E0000107E7D3C2E700BFE16800200026884767
:1021F000296864208847E168012088476069804732
:10220000002818BF0120296840EA4909642088474E
:10221000072F07F10107E7D3A8E7E1680020884707
:10222000BAF1000F9AD14FF0000BA06880472169E6
:1022300000208847E1680120884729686420884792
:10224000216901208847296864208847E1680020C7
:102250008847584603B000F000B830BCBDE8C08FD6
:102260000246002840F60040C4F600004FF040014E
:1022700018BF0122FEF7A0BD0246002840F600006C
:10228000C4F600004FF0020118BF0122FEF794BD12
:102290002DE9F04F81B004468068DDE90A989A463E
:1022A00017460D468047216901208847E1680120D3
:1022B00088472968642088472169002000268847CC
:1022C000296864208847E16800208847A068804723
:1022D000E1680020884700BF2169C7F380104FEAFA
:1022E000470B8847E16801208847296864208847B0
:1022F000E16800208847296864208847072E06F196
:1023000001065F46E8D3606880472169012088475D
:10231000296864208847E16801208847296864208B
:102320008847002660698047F0B1B6F5FA6F06F17C
:102330000106F7D3A168064688472169002088472F
:10234000E1680120012788472968642088472169BE
:1023500001208847296864208847E1680020884771
:10236000002E40F0A58002E0E16800208847A068C8
:102370008047E16800200026884700BF21695FFA96
:102380008AF0C0098847E16801204FEA4A0A884775
:10239000296864208847E16800208847296864200C
:1023A0008847072E06F10106E8D360688047216957
:1023B00001208847296864208847E1680120884710
:1023C000296864208847002660698047A8B1B6F56F
:1023D000FA6F06F10106F7D3A06880472169002053
:1023E0008847E16801208847296864208847216977
:1023F00001208847296864208847E1680020002779
:102400008847B8F1000F53D04FF0000A19E000BF21
:10241000A0688047216900208847E168012088473B
:102420002968642088472169012088472968642039
:102430008847E1680020002788470AF1010AC24561
:1024400036D0A06819F80A708047E168002000269D
:10245000884700BF2169F8B2C0098847E1680120B8
:102460007F008847296864208847E1680020884702
:10247000296864208847072E06F10106EAD36068C0
:102480008047216901208847296864208847E168DE
:1024900001208847296864208847002660698047B2
:1024A0000028C6D0B6F5FA6F06F10106F6D3AFE7FD
:1024B000A0688047216900208847E168012088479B
:1024C0002968642088472169012088472968642099
:1024D0008847E16800208847384601B000F000B81E
:1024E00030BCBDE8C08F0000F0B587B0002541F2D8
:1024F0004C000695CDE90455CDE90255C4F2020021
:10250000016841F2000441F0800101600168C4F6F5
:10251000000401F08001019101990168012241F05C
:102520000401016001684FF4607601F0040101913B
:1025300001990168012741F010010160016801F073
:10254000100101910199016841F0010101600068E9
:102550004FF4607100F00100019001982046FEF7F1
:102560002BFC02A92046CDE90267CDE90455FEF710
:1025700041FB07B0F0BD000080B540F2B41043F657
:102580000001C2F20000C4F2010100234FF00C0C64
:102590004FF4E13280E80E00C0E90333C0E905C31F
:1025A000C0E907334362FFF73BFC002808BF80BD4A
:1025B000BDE88040FEF718BBFEE70000FEE7000024
:1025C0002DE9F04141F20004C4F20204E2680E4633
:1025D0009107804613D0E168D8F8000001F00301AC
:1025E00081420AD148B1E068D8F80410C0F3021063
:1025F0000130884201D100253AE0012538E0D8F8C1
:102600000000032817D002280BD0012821D121680F
:10261000012301F0020283EA5205C1F34001D9B956
:1026200026E02168012301F4806283EA9225C1F348
:10263000802189B91CE0216889034FF001017CD415
:10264000226802F4802381EA9345C2F3804119B9DC
:102650000EE00125002159B1E168D8F804206FF09F
:102660000F0321F0730103EB021211430843E060F2
:1026700085B9206820F080602060FEF7A3FB074644
:102680002068000105D5FEF79DFBC01B0328F7D38A
:10269000032515B12846BDE8F0812169D8F8080066
:1026A000012E4FEA00200DD0EEB948F2FF02CFF61E
:1026B000FD721140D8F80C200023CFF6FE7303EA18
:1026C00042321DE048F2FF02CFF6FF1202F1B4627F
:1026D0001140D8F810200023CFF6E07303EA02522D
:1026E000A2F500120CE048F2FF02CFF6FF121140F3
:1026F000D8F814204FF07E4303EA026202F17E42D2
:10270000084310432061206840F080602060FEF79D
:1027100059FB06462068000105D4FEF753FB801BD9
:102720000328F7D30325002DB4D1D8F81800216968
:10273000084320612846BDE8F081002500297FF488
:102740008BAF95E72DE9F04141F20004C4F2020499
:10275000E2680E469107804613D0E168D8F8000081
:1027600001F0030181420AD148B1E068D8F80410B1
:10277000C0F302100130884201D100253AE0012562
:1027800038E0D8F80000032817D002280BD0012821
:1027900021D12168012301F0020283EA5205C1F32D
:1027A0004001D9B926E02168012301F4806283EA5F
:1027B0009225C1F3802189B91CE0216889034FF07B
:1027C00001016AD4226802F4802381EA9345C2F3AE
:1027D000804119B90EE00125002159B1E168D8F80E
:1027E00004206FF00F0321F0730103EB0212114379
:1027F0000843E06085B9206820F080502060FEF733
:10280000E1FA07462068800005D5FEF7DBFAC01B19
:102810000328F7D3032515B12846BDE8F081616987
:10282000D8F808004FEA00206EB148F2FF02CFF658
:10283000FF121140D8F810204FF07E4303EA0262E5
:1028400002F17E420BE048F2FF02CFF6FD7211402A
:10285000D8F80C200023CFF6FE7303EA4232084377
:1028600010436061206840F080502060FEF7AAFAB3
:10287000064600BF2068800005D4FEF7A3FA801B3F
:102880000328F7D30325002DC6D1D8F814006169B9
:10289000084360612846BDE8F081002500299DD1EC
:1028A000A8E7000040F60000C4F600000221FEF791
:1028B0007DBA000080B502F04BF903F019F8BDE8CD
:1028C000804002F053B9000010B596B005A844212D
:1028D000FDF755FD00200490CDE90200CDE9000090
:1028E0004FF40070FEF708FB18B1EFF3108072B6DA
:1028F000FEE70120032405904FF48031CDE910401C
:1029000014200691022112900720CDE9130105A899
:102910000F911591FEF7C6FE18B1EFF3108072B655
:10292000FEE70F20CDE900040020CDE9020004906D
:1029300068460421FEF704FD18B1EFF3108072B66B
:10294000FEE716B010BD000041F20C00C4F2020018
:1029500050F80C1C090703D4D0F88810090A02E0CB
:1029600050F80C1C090946F6A00201F00F01C0F650
:10297000000252F8211050F8042CC2F38102DFE863
:1029800002F02F02070C42F20041C0F2F40127E0EE
:1029900041F20021C0F27A0122E00368026803F0EC
:1029A0000303C2F30212022B02F1010206D0032B31
:1029B00004BF41F20021C0F27A0103E042F200417B
:1029C000C0F2F4010368B1FBF2F1C3F3062203681D
:1029D0005143C3F34162022303EB4202B1FBF2F124
:1029E00040F20402C2F20002116050F8040C46F6F4
:1029F0008801C0F30310C0F60001085C116821FAD9
:102A000000F01060704700004EF68850CEF20000D3
:102A1000016841F4700101607047000010B582B098
:102A200043F2B9714FF0050C18240DA0C0F6000157
:102A300000224FF40053CDE9004C02F0DBFD38B129
:102A400004460AA002F0A0F8204602F01BFF02E0B4
:102A50000CA002F099F84FF0FF3002B010BD00BF9B
:102A60006B65795F746872656164000063726561AB
:102A70007465206B65795F746872656164204F4B83
:102A80000A000000637265617465206B65795F748C
:102A90006872656164206661696C65640A000000A3
:102AA000416A0A070CD4CA0715D18A071ED44A07FF
:102AB00027D4CA0630D48A0639D44A0642D457E00D
:102AC0000268D0F834C0536823F4004343EA0C038F
:102AD0005360CA07E9D00268D0F828C0536823F4CD
:102AE000003343EA0C0353608A07E0D50268D0F84C
:102AF0002CC0536823F4803343EA0C0353604A0725
:102B0000D7D50268D0F830C0536823F4802343EA55
:102B10000C035360CA06CED50268D0F838C093685B
:102B200023F4805343EA0C0393608A06C5D50268F8
:102B3000D0F83CC0936823F4005343EA0C0393603D
:102B40004A0615D5D0F800C0036CDCF80420B3F5B4
:102B5000801F22F4801242EA0302CCF8042007D13D
:102B6000DCF80420436C22F4C0021A43CCF80420A1
:102B7000090658BF70470168806C4A6822F4002239
:102B80001043486070470000B0B582B00446002092
:102B9000C4F88400FEF716F921680546096809079C
:102BA0001AD56FF07E4C20464FF4001100222B46C0
:102BB000CDF800C000F076F970B100BF206850E891
:102BC000000F216820F0800041E80002002AF5D1C2
:102BD000032020217C222FE020680068400723D5B5
:102BE0006FF07E4C20464FF4800100222B46CDF83A
:102BF00000C000F057F9B8B1206850E8000F216814
:102C000020F4907041E80002002AF5D1206850E8D5
:102C1000020F216820F0010041E80202002AF5D1EC
:102C200003202021802207E02020E067C4F88000F4
:102C30000021642200202166A150002184F8781030
:102C400002B0B0BDB0B5044604F108052ECD006851
:102C5000194341EA0503D4F81CC0056846F6F31190
:102C6000CEF6FF712940194341EA0C010160416829
:102C700021F440511143416048F20002A369C4F2BB
:102C8000000290421CBF216A0B43816821F430612D
:102C90001943816044F6FF71C4F2000188424FF08D
:102CA000100318DC44F20041C4F20001884227D02E
:102CB00044F60001C4F2000188422FD044F60041DE
:102CC000C4F2000188423ED141F28801C4F20201FF
:102CD00009688B092FE045F20001C4F20001884227
:102CE00015D0904221D043F60001C4F20101884280
:102CF00029D141F28801C4F202010B6865A51EE0EA
:102D000041F28801C4F2020109688B0813E041F224
:102D10008801C4F2020109680B0A0CE041F2880143
:102D2000C4F2020109680B0905E041F28801C4F20E
:102D3000020109688B0A46F6D015C0F6000503F0BB
:102D4000030155F82130904242F20040C0F2F400F5
:102D500012D0BCF5004F1DD1082B00F25380002586
:102D6000DFE803F005586250605050508E00FEF7C7
:102D70000DFC002859D17BE0082B3ED80025DFE868
:102D800003F0053C1E3C183C3C3C1C00FEF7FEFBDF
:102D9000B8B96DE0082B39D80025DFE803F0053F0E
:102DA0005B37593737377600FEF7F0FB002852D1F2
:102DB0005EE0FEF717FC20B95AE04FF4004000280F
:102DC00056D0626802EB420188424FF0010152D3B3
:102DD000130398424FD8010E000210EB520041F14C
:102DE00000010023FDF790FA4FF60052A0F5407164
:102DF000C0F20F02914239D33CE0002001250028A7
:102E0000DFD135E00020012578B931E0002001252F
:102E100008BB2DE0FEF7D0FB38B929E0FEF7CCFB6C
:102E2000C8B925E0FEF7DEFB10B361684A0802EB83
:102E30004000B0FBF1F04FF6EF72A0F110019142AB
:102E400018D84FF6F0710140C0F3420008440DE07D
:102E5000FEF7C8FB60B161684FF6EF7200EB5100FE
:102E6000B0FBF1F0A0F11001914203D82168C860D5
:102E7000294600E0012100220846A266E266B0BDB4
:102E80004FF400400028D0D1F2E74FF40040002872
:102E9000E1D1EDE7010000000400000002000000A5
:102EA000080000002DE9F04381B004460068C069C5
:102EB0000840401AB0FA80F04009904255D1DDF840
:102EC000208015460E46994608F1010709E000BF2B
:102ED0002068C0693040801BB0FA80F04009A842E9
:102EE00043D1002FF4D0FDF76DFF0146B8F1000F7C
:102EF0004FF003003AD0A1EB0901414536D82068D4
:102F000001684907E4D5402EE2D0802EE0D0C169A7
:102F100009072ED4C1690905DAD54FF400610162B1
:102F2000206850E8000F216820F4907041E800020A
:102F3000002AF5D1206850E8020F216820F0010036
:102F400041E80202002AF5D1206E01280AD100BF13
:102F5000206850E8000F216820F0100041E80002CE
:102F6000002AF5D1032020212AE0002001B0BDE88D
:102F7000F0830821016200BF206850E8000F21683B
:102F800020F4907041E80002002AF5D1206850E852
:102F9000020F216820F0010041E80202002AF5D169
:102FA000206E01280AD100BF206850E8000F216878
:102FB00020F0100041E80002002AF5D1012008218C
:102FC0002022C4F8802000222266A266C4F8841061
:102FD00084F8782001B0BDE8F0830000FEE700002F
:102FE000002804BF00207047C1B209B101200CE0E5
:102FF00010F47F4102D0090A092006E010F47F0195
:1030000007BF010E1920090C112046F6D002C0F6A8
:103010000002515C08447047B0B540F2B820C2F2DB
:1030200000000468FDF7CCF80546204602F056F88B
:1030300004F1440002F006FD042084F83400204628
:1030400002F024FB2846FDF7BFF8BDE8B04001F0D0
:1030500017BF0000B0B50446FDF7B2F8214605469B
:10306000A06951F8142F6FF001035060A069236329
:1030700002602046A161096001F0EEFF2846FDF7DD
:10308000A3F8BDE8B04001F0FBBE000080B502A08F
:1030900001F07AFD002080BD1B5B324A1B5B4800BB
:1030A00010B502281DD14C6846F6A131C0F60001CA
:1030B0002046FDF782F958B346F6C331C0F6000149
:1030C0002046FDF77AF938B319A12046FDF775F9C6
:1030D00030B346F6B131C0F600012046FDF76DF978
:1030E00010B346F6F220C0F6000001F04DFD11A02D
:1030F00001F04AFD12A001F047FD18A001F044FDC7
:103100001DA001F041FD23A001F03EFD002010BDF7
:1031100000F012FD002010BD00F0FEFD002010BDEB
:1031200000F032FC002010BD00F054FB002010BD68
:1031300073656D005B6F7074696F6E735D3A0A0042
:1031400020202020746872656164202D206C6973D2
:103150007420746872656164730A00002020202066
:1031600074696D6572202D206C6973742074696DAB
:103170006572730A000000002020202073656D2016
:103180002D206C6973742073656D6170686F726552
:10319000730A0000202020206D73677175657565C6
:1031A000202D206C697374206D65737361676520D1
:1031B0007175657565730A0010B504460420FEF745
:1031C0000DFE40F22810C2F20000046010BD0000A5
:1031D000002808BF7047B0B540F22812C2F20002C2
:1031E00012684EF218014FF47A73CEF2000102FB1E
:1031F00003FE4FF0000C00BF51F8043C0C680022A5
:103200000D68A542FCD02244521BA54228BF1A4497
:1032100072452C46F4D30CF1010C8445ECD1BDE889
:10322000B040704780B54EF2180140F22812CEF23D
:103230000001C2F2000251F804CC1268002302FB24
:1032400000FE08680A688242FCD003449B1A82424E
:1032500028BF63447345104628BF80BDF2E70000D5
:1032600070B582B040F2181046F63461C2F2000028
:10327000C0F60001016040F21C1046F6A061C2F2E7
:103280000000C0F6000101600120782101F07EF904
:1032900044F26016C2F20006306018B30A2015210D
:1032A000CDE9001043F21D3112A0C0F6000100224A
:1032B0004FF48063002402F09DF9326805460FA1A7
:1032C00010460022002301F033FF316891F82120DD
:1032D00042F0020281F821204DB1284602F0D2FAD4
:1032E000002404E007A001F04FFC4FF0FF3420461B
:1032F00002B070BD747368656C6C0000736872789E
:10330000000000006E6F206D656D6F727920666F32
:1033100072207368656C6C0A0000000044F2601A49
:10332000C2F2000ADAF8000040F22C1490F82110E2
:1033300040F2B01741F0010280F821208807C2F264
:103340000004C2F2000702D40020207015E03968A2
:1033500039B140F22C10C2F200008022FDF71AF8B9
:1033600006E00020207147F26D30C2F26800206054
:103370002046FDF71BF83E212152204601F004FCB7
:1033800046F6F5364FF001084FF0000BC0F6000688
:1033900002E000BF80F8208001F08AF98146DAF867
:1033A0000000B9F11B0FF5D090F8201002290AD0C7
:1033B000012940F07480B9F15B0F40F06E8002216A
:1033C00080F82010E8E7A9F14101022980F820B037
:1033D000E2D3B9F1440F00F28A80DFE819F045002A
:1033E0008F008F008F008F008F008F008F00CC0028
:1033F00018016D008F008F006D008F008F008F000F
:103400008F008F008F008F008F008F008F008F0044
:103410008F008F008F008F008F008F008F008F0034
:103420008F008F008F008F008F008F008F008F0024
:103430008F008F008F008F008F008F008F008F0014
:103440008F008F008F008F008F008F008F008F0004
:103450008F008F008F008F008F008F008F008F00F4
:103460008F008F0046008C0196E7B0F87610B0F818
:1034700074209142BFF490AF084490F8221046F6B1
:10348000FC30C0F6000001F07FFBDAF80000B0F875
:1034900076100131A0F876107EE780F820B0B9F1FF
:1034A0000D0F24D8DFE809F0072A2A2A2A2A2A2A17
:1034B00067B3082A2A086FE790F82100C00705D0F3
:1034C00046F66A30C0F6000001F05EFBDAF8000054
:1034D000B0F87410223000F02FFEDAF8000090F8F7
:1034E0002100800700F18B8084F800B0F4E0B9F18E
:1034F0007F0F40D0B9F1FF0F3FF44EAFB0F874101A
:10350000502928BFA0F874B0B0F87630B0F8742015
:10351000934280F0A180C11801F123002231D21A18
:1035200001F0B2FBDAF80000B0F87610084480F839
:103530002290DAF8000090F82110C90707D0B0F8FF
:103540007610084400F1220186A001F01DFBDAF894
:103550000000B0F87650B0F87400854280F08C809E
:10356000304601F011FBDAF800000135B0F87400C4
:103570008542F5D380E0B0F8761000293FF40CAF17
:10358000B0F874204D1E531E9AB2A0F87430ABB23E
:103590009A42A0F8765040F28180A4463C4600F161
:1035A000220717FA85F03944D21A2746644601F0FB
:1035B0006BFBDAF80000B0F87410084480F822B011
:1035C000DAF80000B0F87610084400F1220161A09A
:1035D00001F0DAFADAF80010B1F87600B1F87410F8
:1035E00088423FF6D9AE451E304601F0CDFADAF8F2
:1035F00000000135B0F874008542F5D3CCE6396897
:1036000000295DD020468022FCF7C4FE5FE0DAF896
:103610000000B0F8761059B1002500BF304601F027
:10362000B3FADAF800000135B0F876108D42F5D320
:1036300000F1220546F66A30C0F6000001F0A4FA57
:10364000284600F0F3FCDAF8000090F8210080072B
:103650002FD484F800B06AE0104480F82290DAF8A1
:10366000000090F82100C00706D046F6FC30C0F6F6
:103670000000494601F088FADAF80000B0F874104A
:10368000B0F876200131A0F8741089B201325029C7
:10369000A0F8762028BFC0F874B07DE62CA001F019
:1036A00073FADAF80000B0F87410084480F822B019
:1036B00072E6396879B320468022FCF76BFE31E070
:1036C00047F26D30C2F2680084F804B020602046F2
:1036D000FCF76CFE3E212152204601F055FADAF843
:1036E000000000212230512201F0ECFADAF800004B
:1036F000C0F874B050E6B0F8760000283FF44CAE45
:10370000304601F041FADAF80000B0F876100139DD
:10371000A0F8761040E647F26D30C2F2680084F8F7
:1037200004B020602046FCF741FE3E2121520BA050
:1037300021462A4601F028FADAF8005005F1220065
:10374000FCF734FEA5F87400A5F8760024E600BF67
:103750000820080008257320200800002573257321
:10376000000000002573000043F61C01C4F20101B3
:103770000A685206FCD5C2B28A8170470346002807
:103780004FF0010018BF002900D17047002A08BF80
:10379000704710B50868C3E900121C4680472068CE
:1037A0000169012088472068C168012088470020FE
:1037B000BDE810407047000004A400BF204603F09D
:1037C00051F84FF47A7001F06DFFF7E77468726595
:1037D000616431002DE9F04F8BB0062001F008FB49
:1037E00046F6B13204464FA0C0F60002082101F0AF
:1037F000CBF946F69D356FF00706C0F6000500BF11
:10380000284601F0C1F90136FAD34DA0261D01F07A
:10381000BBF946F6C93746F69F3B0025C0F60007C0
:10382000C0F6000B029602E0029E002D76D02C46D8
:10383000002D08BF3546FCF7C3FC7CB94FF00008EB
:103840002D68B54212D003A941F8285008F10108AB
:10385000B8F1080FF4D14FF0080808E015F8041C7F
:1038600001F07F010629E9D04FF000080025FCF7A0
:10387000ABFCB8F1010FD7DB4FF000090AE000BF45
:1038800046F66A30C0F6000001F07EF909F1010940
:10389000C145C9D003A850F829A0FCF791FC1AF83B
:1038A000041C01F07F04FCF78FFC062CEED1AAF17A
:1038B0000C035AF8080F4FF0FF34BAF81060504567
:1038C0001ED05046006801345045FBD122A008218B
:1038D0000822CDE9006401F057F9DAF8006000E051
:1038E00036685645CCD0A6F114023846082101F0BE
:1038F0004BF930685045F3D0584601F045F9EFE7F1
:10390000504600BF006801345045FBD117A0082184
:103910000822CDE9006401F037F9B7E700200BB0C9
:1039200000F02EB8252D2A2E7320656E7472792032
:1039300073757370656E64207468726561640A00E3
:10394000202D2D2D2D20202D2D2D2D2D2D2D2D2DCE
:103950002D2D2D2D2D0A0000252D2A2E2A732025F0
:10396000303464202025643A00000000252D2A2EE2
:103970002A732025303464202025640A00000000CA
:1039800030BCBDE8C08F00002DE9F04F8BB00220A5
:1039900001F02EFA04464EA054A2082101F0F4F8DA
:1039A00046F69D356FF00706C0F60005284601F083
:1039B000EBF80136FAD350A0261D01F0E5F846F6E3
:1039C000C93746F69F3B0025C0F60007C0F6000B3E
:1039D000029602E0029E002D76D02C46002D08BFF4
:1039E0003546FCF7EDFB7CB94FF000082D68B54279
:1039F00012D003A941F8285008F10108B8F1080FC6
:103A0000F4D14FF0080808E015F8041C01F07F011C
:103A10000229E9D04FF000080025FCF7D5FBB8F1EA
:103A2000010FD7DB4FF000090AE000BF46F66A300D
:103A3000C0F6000001F0A8F809F10109C145C9D09C
:103A400003A850F829A0FCF7BBFB1AF8041C01F0EE
:103A50007F04FCF7B9FB022CEED1AAF10C035AF853
:103A6000080F4FF0FF34BAF8086050451ED050469A
:103A7000006801345045FBD125A008210822CDE97A
:103A8000006401F081F8DAF8006000E0366856451D
:103A9000CCD0A6F114023846082101F075F8306840
:103AA0005045F3D0584601F06FF8EFE7504600BF9D
:103AB000006801345045FBD119A008210822CDE946
:103AC000006401F061F8B7E700200BB000F030B8F7
:103AD000252D2A2E73207620202073757370656E35
:103AE00064207468726561640A00000073656D612A
:103AF00070686F7265000000202D2D2D202D2D2D5A
:103B00002D2D2D2D2D2D2D2D2D2D2D0A00000000BC
:103B1000252D2A2E2A7320253033642025643A006F
:103B2000252D2A2E2A7320253033642025640A008F
:103B300030BCBDE8C08F00002DE9F04FA9B00120D6
:103B400001F056F9044646F6093046F6A132C0F6B1
:103B50000000C0F60002082101F016F846F69D3577
:103B60006FF00706C0F60005284601F00DF8013693
:103B7000FAD345A0251D01F007F84FF0000921AE4A
:103B8000029503E0029DB9F1000F79D04C46B9F1DE
:103B9000000F08BFA946FCF713FB7CB94FF0000AE1
:103BA000D9F80090A94511D046F82A900AF1010AE7
:103BB000BAF1080FF4D14FF0080A09E019F8041C13
:103BC00001F07F010129E9D04FF0000A4FF0000910
:103BD000FCF7FAFABAF1010FD4DB4FF0000B05E065
:103BE000FCF7F2FA0BF1010BD345CBD056F82B5072
:103BF000FCF7E6FA15F8041C01F07F010129EFD16A
:103C0000A5F10C07044603A83946782200F0EEFF20
:103C10002046FCF7D9FA95F829602BA00821082244
:103C20003B46009600F0B0FF95F8280000F0070032
:103C3000042804D827A151F8200000F0A5FFEA6964
:103C4000002100BF505C01312328FBD0D5E908409A
:103C50006427611A2B697943D5F834802244643192
:103C6000B1FBF4F7D51A01F007FC06461EA0294661
:103C700022463B46CDE9008600F086FF21AEB1E743
:103C8000002029B000F044B8202D2D2D20202D2D0E
:103C90002D2D2D2D2D202D2D2D2D2D2D2D2D2D2D61
:103CA000202D2D2D2D2D2D2D2D2D2D20202D2D2D6B
:103CB0002D2D2D20202D2D2D2D2D2D2D2D2D2D205B
:103CC0002D2D2D0A00000000252D2A2E2A732025D7
:103CD000336420006C6B00087E6B0008A86B000842
:103CE000BA6B0008756B00082030782530387820D2
:103CF0003078253038782020202025303264252562
:103D00002020203078253038782025730A000000E4
:103D100030BCBDE8C08F00002DE9F04F8BB00A2009
:103D200001F066F846F6C332044643A0C0F600022E
:103D3000082100F029FF46F69D356FF00706C0F612
:103D4000000500BF284600F01FFF0136FAD347A048
:103D500004F1040800F018FF002401E0002C5ED0FC
:103D60002646002C08BF4446FCF72AFA86B94FF0D5
:103D7000000903A92468444512D041F8294009F1FB
:103D80000109B9F1080FF5D14FF0080909E000BFAA
:103D900014F8041C01F07F010A29E8D04FF0000953
:103DA0000024FCF711FAB9F1010FD7DB03AE29E0CB
:103DB000ABF10C0AFCF708FADBE9065746F6873048
:103DC000C0F60000082108225346CDE9005700F054
:103DD000DBFE1BF8030C31A1C00734A008BF084666
:103DE00000F0D2FE1BF8030C80075ABF46F64D3098
:103DF000C0F6000031A000F0C7FEB9F1010906F1DC
:103E00000406ABD0D6F800B0FCF7DAF91BF8041CB6
:103E100001F07F010A29CBD0FCF7D6F9EDE701F0DC
:103E200061FD014646F65730C0F6000000F0ACFEDA
:103E300000200BB000F048B8252D2A2E73202070EA
:103E40006572696F64696320202074696D656F75A0
:103E50007420202020616374697661746564202079
:103E60002020206D6F64650A00000000202D2D2D9C
:103E70002D2D2D2D2D2D2D202D2D2D2D2D2D2D2D7F
:103E80002D2D202D2D2D2D2D2D2D2D2D2D2D202D7C
:103E90002D2D2D2D2D2D2D2D0A0000006465616323
:103EA0007469766174656420000000006163746960
:103EB00076617465642020200000000070657269DE
:103EC0006F6469630A00000030BCBDE8C08F000069
:103ED00098B0FCF77DFF07A84421FCF750FA0020BA
:103EE0000690CDE90400CDE902004FF40070FDF723
:103EF00003F820B1EFF3108072B600BFFEE7012097
:103F0000032407904FF48031CDE91240142008912A
:103F1000022114900720CDE9150107A811911791EE
:103F2000FDF7C0FB18B1EFF3108072B6FEE70F206B
:103F3000CDE902040020CDE90400069002A8042186
:103F4000FDF7FEF918B1EFF3108072B6FEE7FEF749
:103F5000CBFAFEF711FB5020FFF72EF940F2680173
:103F600040F26002C2F20001C2F2000207A8FFF7AD
:103F700005FCDDE90701FCF75DFD40F2800740F23A
:103F80006408C2F20007C2F2000813A4DDE90701C9
:103F9000FCF7CEFDDDE9070187ED000AFCF778FDAF
:103FA0003868B0EE408A88ED000AFCF758FB0546F9
:103FB00018EE100A0E46FCF752FB41EC100B20469F
:103FC0002A4633468DED000B01F0CCFF4FF47A709A
:103FD00001F068FBDAE700BF74656D7065726174AB
:103FE0007572653A252E32662068756D696469744C
:103FF000793A252E32660A00B0B546F6306446F6A8
:104000002460C0F60004C0F60000A04209D246F6C3
:104010002465C0F6000500BF55F8040B8047A54293
:10402000FAD3BDE8B040FFF753BF00002DE9F047D9
:1040300004460078002842D040F2181040F21C1AC2
:10404000C2F20000C2F2000A0768DAF800008742F4
:1040500061D200250FF2DC084FF000090EE000BF2E
:10406000A0EB0900A842B8BF05464046314600F023
:104070008BFDDAF800000C3787424FD23E682046AD
:10408000FCF794F9024620463146FCF7A4F90028D3
:10409000EFD125B93046FCF789F90546B14699F8C4
:1040A000001048460029DBD0484632461378994232
:1040B000D6D110F8011F01320029F7D1D0E746F61A
:1040C000CE30C0F6000000F05FFD40F2181040F264
:1040D0001C15C2F20000C2F200050068296888427F
:1040E00011D246F6E934A0F10C06C0F6000400BF78
:1040F00056F80C1F2046726800F046FD286806F14D
:104100000C018142F4D346F66A30C0F60000BDE8E7
:10411000F04700F039BD4FF000090025B9F1000F5C
:1041200008BFBDE8F087204649462A46BDE8F0476B
:1041300001F0D0B925730A00002904BF00207047A0
:104140002DE9F04788B0044604E000BF013904F1CE
:1041500001040ED020782028F8D00928F6D00025B8
:10416000605D09280AD0202808D0A94205D0013571
:10417000F6E7002008B0BDE8F0870D46002D00F0FE
:10418000C08040F21810C2F20000076840F21C1014
:10419000C2F20000D0F80080474512D2894602E002
:1041A0000C37474510D23E68214630462A46FCF778
:1041B00012F90028F4D1705D0028F1D1D7F80880F9
:1041C00004E04FF0000802E04FF000084946B8F163
:1041D000000F4FF0000A00F09680E94648460D4671
:1041E0000021202200F06EFD2946002700252246EE
:1041F00005E01D468D4266D28D42074663D20846D1
:104200008D4288BF284600BF013212F8013C202BA6
:1042100001D0092B07D1A84204D002F801AC013526
:10422000F2E700BF0546082F39D28D4266D2222B15
:1042300007F101001CD149F8272016786B1C03E018
:1042400012F8016F1D4601338B424FF0000738BF53
:104250000127222E1ED08B421CD25C2EF0D1174695
:1042600017F8016F222E04BF3A46AB1CE8E700BFE7
:10427000013A0B4649F827208D4288BF2B4600BFE4
:104280001778092FB6D0202FB4D0AB42B1D001326D
:104290000135F5E7BFB102F801AB0235ACE71DA06F
:1042A00000F072FC002523A659F82510304600F0D6
:1042B0006BFC0135AF42F7D146F66A30C0F600001C
:1042C00000F062FC3846E0B16946C0474FF0010A91
:1042D000BAF1000F1AD12046017841F020012029BF
:1042E00001D00130F8E70021017013A0214600F051
:1042F0004BFC4FF0FF3008B0BDE8F087384600288F
:10430000E2D14FF0000ABAF1000FE4D008B0BDE8E6
:10431000F08700BF546F6F206D616E792061726706
:10432000732021205765206F6E6C79205573653A94
:104330000A0000002573200025733A20636F6D6D1D
:10434000616E64206E6F7420666F756E642E0A0055
:1043500070B546F6CE30C0F6000000F015FC40F215
:10436000181040F21C15C2F20000C2F200050068ED
:104370002968884211D246F6E934A0F10C06C0F64D
:10438000000400BF56F80C1F2046726800F0FCFBCA
:10439000286806F10C018142F4D346F66A30C0F673
:1043A000000000F0F1FB002070BD00002DE9F04F8F
:1043B00088B0DDF84CA00FF2B41B5FEA4A6766A72D
:1043C00058BFBB465FEACA6748BF2AF0010A5FEAE6
:1043D000CA774FF0300708BF202701975FEA8A7736
:1043E00006D400270297012703970027009713E0C0
:1043F000B2F1FF3F07DD5FEA4A7707D45FEA0A7749
:10440000EFD5202703E052422D2700E02B2700970D
:104410000027039701270297DDF848C0FAB14CF650
:10442000CD4E0025CCF6CC4E0DF11009A2FB0E4668
:1044300002F00F04F70807EB87070A2B08BFA2EB6F
:1044400047044FEA121208BFF2081BF8044005F1B6
:10445000010809F80540002A4546E7D104E030226A
:104460008DF810204FF00108119AE0456346C8BF4F
:1044700043461AF0110FA2EB030202D0039FBFB113
:104480001CE00027002AC8BF0127029E3740D21B2C
:10449000012A5BDB039F20258842A2F1010238BF7D
:1044A0000570002A00F10100F6DC4FF0FF322FB951
:1044B00088423CBF009F0770013A01305FEACA673B
:1044C00002D5E04515DB1EE0012A0FDB019F00BF8E
:1044D0008842A2F1010238BF0770002A00F10100F2
:1044E000F6DC4FF0FF32E04503DB0CE0013AE0453B
:1044F00009DA30278842A3F1010338BF07709845D5
:1045000000F10100F6DBBCF1000F0ED004AB013B63
:1045100088423CBF13F808700770BCF1000F00F12F
:10452000010002D0B8F10108F2DC012A0BDB0132F4
:10453000202300BF8842A2F1010238BF0370012A84
:1045400000F10100F6DC08B000F01AB8039F013A50
:10455000002FADD0B2E700BF3031323334353637BB
:1045600038396162636465660000000030313233BF
:10457000343536373839414243444546000000005F
:1045800030BCBDE8C08F000000F0D6B8B0B501FB6C
:1045900000F4204600F018FB002808BFB0BD002141
:1045A0002246054600F08EFB2846B0BDB0B546F663
:1045B000246446F61C60C0F60004C0F60000A04269
:1045C00028BFB0BD051F00BF55F8040F8047281D48
:1045D000A042F9D3B0BD000080B5FBF7F1FD43F672
:1045E0004C71C2F200010A8801320A80BDE88040A5
:1045F000FBF7EABD80B5FBF7E3FD43F64C71C2F271
:1046000000010A88013A13B2002B0A8003DDBDE8DD
:104610008040FBF7D9BD00220A80FBF7D5FD40F2B0
:10462000B820C2F200000068002808BF80BDBDE8C5
:10463000804000F025BC0000002808BF704710B57E
:104640000446FFF7C9FF204600F050FEBDE81040C9
:10465000FFF7D0BF40F2C020C2F200007047000058
:1046600040F2C020C2F2000000F570507047000018
:1046700010B5FCF7ADFBFEF727F9FEF765F9FCF77F
:104680007FFF44F6D351C1F26201A0FB010188090A
:10469000FDF7B0FBFFF78AFFFFF7DCFF0446FFF7EB
:1046A000DFFF01462046BDE8104000F033BF0000A8
:1046B00040F29000C2F200000068C169890608D487
:1046C00080B50A2001F092F8FF20BDE88040C0B21A
:1046D0007047808CC0B27047F0B581B004460D20A1
:1046E0008DF8030040F29000C2F20000002180F833
:1046F0007810204600F0E6FEE0B140F29006054654
:10470000C2F200060DF103070AE000BF3046214661
:1047100001220123FDF7FCFB013D04F1010409D056
:1047200020780A28F2D13046394601220123FDF7CC
:10473000EFFBEBE701B0F0BD4EF60C500421CEF2DA
:104740000000C0F2FA5101607047000010B540F25D
:10475000BC21C2F200010968044629B104F1280015
:104760008847002808BF10BD616C46F6F440C0F6CB
:10477000000000F009FAA16A46F6B340C0F6000056
:1047800000F002FAE16A46F6C040C0F6000000F010
:10479000FBF9216B46F6CD40C0F6000000F0F4F9BD
:1047A000616B46F6DA40C0F6000000F0EDF9A16852
:1047B00046F6E740C0F6000000F0E6F9E168A9A07F
:1047C00000F0E2F92169ABA000F0DEF96169ADA06B
:1047D00000F0DAF9A169AFA000F0D6F9E169B1A063
:1047E00000F0D2F9216AB3A000F0CEF9616AB5A059
:1047F00000F0CAF9A16BB7A000F0C6F9E16BB9A04F
:1048000000F0C2F9216CBBA000F0BEF9207840078F
:1048100006D446F6FF30C0F6000000F0B5F908E017
:1048200000F0ECFF014646F61940C0F6000000F02B
:10483000ABF92078C00605D446F63640C0F6000035
:1048400000F0A2F94EF62954CEF20004D4F8030089
:10485000800705D546F69140C0F6000000F094F9B7
:10486000D4F80300400040F1F080207800284AD0BE
:1048700046F66540C0F6000000F086F9217846F65D
:104880007850C0F6000000F07FF92078C00705D00E
:1048900046F66350C0F6000000F076F920788007F5
:1048A00005D546F65850C0F6000000F06DF92078A6
:1048B000400705D546F65650C0F6000000F064F9F2
:1048C0002078000705D546F64C50C0F6000000F0F1
:1048D0005BF92078C00602D58AA000F055F994F95A
:1048E0000000B0F1FF3F06DD46F66A30C0F600007A
:1048F00000F04AF907E0D4F80F1046F67140C0F610
:10490000000000F041F914F8010C002849D046F6E7
:104910004440C0F6000000F037F914F8011C46F6D8
:104920008E50C0F6000000F02FF914F8010CC007FB
:1049300005D046F62750C0F6000000F025F914F81F
:10494000010C800705D546F61D50C0F6000000F0AA
:104950001BF914F8010C000705D546F64B50C0F6BC
:10496000000000F011F914F8010CC00605D546F658
:104970004250C0F6000000F007F914F9010CB0F144
:10498000FF3F06DD46F66A30C0F6000000F0FCF896
:1049900007E0D4F80B1046F68140C0F6000000F0A6
:1049A000F3F8B4F8010000284FD046F65740C0F69F
:1049B000000000F0E9F8B4F8011046F6A450C0F683
:1049C000000000F0E1F8B4F80100C00705D046F699
:1049D0006C50C0F6000000F0D7F8B4F80100800772
:1049E00005D546F61350C0F6000000F0CDF8B4F837
:1049F0000100400705D546F60150C0F6000000F062
:104A0000C3F8B4F80100000705D546F63C50C0F6DF
:104A1000000000F0B9F8B4F80100C00505D546F66D
:104A20000850C0F6000000F0AFF8B4F801008005AF
:104A300005D546F63150C0F6000000F0A5F846F660
:104A40006A30C0F6000000F09FF8D4F80300B0F11F
:104A5000FF3F05DC46F6A640C0F6000000F094F8E3
:104A6000FEE700BF7230353A203078253038780ABA
:104A7000000000007230363A203078253038780A4D
:104A8000000000007230373A203078253038780A3C
:104A9000000000007230383A203078253038780A2B
:104AA000000000007230393A203078253038780A1A
:104AB000000000007231303A203078253038780A12
:104AC000000000007231313A203078253038780A01
:104AD000000000007231323A203078253038780AF0
:104AE00000000000206C723A203078253038780AB7
:104AF000000000002070633A203078253038780AB2
:104B00000000000053544B455252200070B504324F
:104B100022F0070E4BF6EF64AEF1440C6FF0470243
:104B2000CDF6AD640EEB02050432161D6C60F9D1B2
:104B30004FF0807400224EE9020460464EE90812EC
:104B40004EE906224EE904234EF8442C70BD0000C5
:104B500080B5FBF735FB43F6C461C2F200010A7869
:104B600001320A70BDE88040FBF72EBB80B5FBF731
:104B700027FB43F6C461C2F200010A78013A0A70C9
:104B8000BDE88040FBF720BB83B070B581B043F631
:104B9000CC64844605A8C2F200040EC005AB2046D2
:104BA0007F21624600937F2600F0DEFF05467F28C6
:104BB000204628BF3546FFF78FFD284601B0BDE8E7
:104BC000704003B07047000010B50446FFF704FDC5
:104BD00044F26410C2F200000068214600F01CFBA1
:104BE0000446FFF707FD204610BD000070B5102AEF
:104BF00003D341EA00039B070DD08446002A08BF77
:104C000070BD0139ACF1010311F8016F013A03F8ED
:104C1000016FF9D170BD4FF0000C0023CD58CE18B4
:104C2000C550D6F804E0C518C5F804E0B468ACF186
:104C3000100CAC60F66802EB0C040F2C03F11003AF
:104C4000EE60EBD81944042C00EB030C19D3A2EB53
:104C5000030EAEF1040200246FF00303CD186D685B
:104C60000CEB03067560251F14440433032C2C46FB
:104C7000F4D8194463440EEB0502043103F1040C2B
:104C8000BCE72246BAE7000081420DD28B1883426E
:104C90000AD9AAB1A1F1010C431E00BF1CF80210F1
:104CA0009954013AFAD10BE0002A08BF7047013944
:104CB000431E00BF11F801CF013A03F801CFF9D12B
:104CC0007047000010B5042A1AD310F0030317D15F
:104CD000CBB24FF00134102A03FB04FE12D3A0F133
:104CE000100300BF103A43F810EF0F2AC3E901EE9A
:104CF000C3F80CE0F6D803F1100C042A05D20EE03C
:104D000084460CE08446042A09D3ACF1040300BFB6
:104D1000043A032A43F804EFFAD803F1040C002AFA
:104D200008BF10BDCBB20446604611461A46FBF7D9
:104D30001FFB204610BD00002DE9F04140F20804A1
:104D4000C2F20004227805468242884606D000203E
:104D50002118097C1030A942FAD10444E068FFF719
:104D600033FF4FF00007C0B1E26800210646FFF7AD
:104D7000A9FF3046414608223572777200F0AAFB3F
:104D8000FBF71EFA54F8041F324642F80C1F4A6023
:104D900022605460FBF718FA37463846BDE8F081C8
:104DA00010B5044600202072FBF70AFA224621695A
:104DB00052F80C3F5960216922610B601260FBF7C9
:104DC00003FA2046BDE81040FFF736BC10B5044694
:104DD00000202072FBF7F4F954F80C1F62684A6057
:104DE00062681160C4E90044BDE81040FBF7ECB90B
:104DF00040F208020021C2F2000200BF535C83426D
:104E000004BF501870471031502904BF002070476C
:104E1000F4E70000F0B581B00E4640F208011546F7
:104E200004460020C2F200010A5CB24204D01030F5
:104E30005028F9D1002700E00F18FFF7CDFB043709
:104E4000384600BF0068B842FCD1FFF7D3FB46F0FC
:104E50008000207220462946082200F03BFBFBF729
:104E6000AFF9396844F80C1F4C603C60676001B0D2
:104E7000BDE8F040FBF7A8B9007AC0097047000010
:104E80002DE9F04381B0FBF79BF943F64C71C2F278
:104E900000010988002940F0DA8044F25009C2F28A
:104EA0000009D9F80010F1B180460846FEF798F8DD
:104EB00040F2B825C2F200052E6843F6507701385B
:104EC000C2F2000796F8342057F8301002F00703BA
:104ED000032BA1F1140408D196F8351088422BD980
:104EE0000121344632E00021ACE00121B44233D04C
:104EF00040F2B422C2F20002002910702C6063D18B
:104F0000FBF75EF9296896F83420B14202F0F80107
:104F100047D096F8353041F00101120786F8341079
:104F200007EBC30106F1140240D40B685A607361A9
:104F30000A6006F118023DE0414002F008031943FF
:104F4000B1FA81F14FEA511108BF344602F0F7027D
:104F500086F83420B442CBD1FBF732F9314651F810
:104F6000142F4B6853604B6849601A6091F82120F8
:104F7000096057F8323007EBC202934206D1B16B99
:104F8000D9F8002022EA0101C9F80010FBF71CF94A
:104F9000286890F8341001F0F801033180F83410DB
:104FA00042E041F0030186F834100BE04B681A60D0
:104FB000B3614A60B36BD9F80050116045EA030150
:104FC000C9F80010FBF700F9FBF7FAF8214651F891
:104FD000142F4B6853604B6849601A6091F8212088
:104FE000096057F8323007EBC202934206D1A16B39
:104FF000D9F8002022EA0101C9F80010FBF7E4F813
:1050000094F8340000F0F800033084F8340043F6DC
:10501000C460C2F20000017806F11C00002904F10E
:105020001C0104D0FBF7D3F80021012006E0FBF7B8
:10503000CEF84046FBF7C8F8022100200028404681
:1050400018BF002100291CBF01B0BDE8F08301B0EA
:10505000BDE8F043FBF7B8B810B50446FBF7B0F86D
:1050600040F2B821C2F20001096894F83420A1424C
:1050700002F0F80116D041F0010184F8341094F8E0
:10508000351043F65073C2F20003120703EBC1015F
:1050900004F114020ED40B685A6063610A6004F1D3
:1050A00018020BE041F0030184F83410BDE8104011
:1050B000FBF78AB84B681A60A3614A6044F2500C4F
:1050C000C2F2000CA36BDCF80040116044EA03015B
:1050D000CCF80010BDE81040FBF776B8B0B5054637
:1050E000FBF76EF8294651F8142F4B6853604B6854
:1050F00049601A6091F8212043F650730960C2F2AA
:10510000000353F8324003EBC202944203D0BDE8DF
:10511000B040FBF759B844F25002C2F20002A96B4A
:10512000136823EA01011160BDE8B040FBF74CB8F9
:1051300070B515460A4602211C460646FFF76AFE70
:1051400006F11400C6E905000020B583747270BD35
:1051500080B582B046F6BF50C0F60000FFF714FDE0
:105160000AA0FFF711FD0FF2480C0FF2500E16A027
:10517000042101220123CDE900ECFFF705FD1BA06E
:1051800002B0BDE88040FFF7FFBC00BF2D205254A5
:10519000202D2020202020546872656164204F70EB
:1051A00065726174696E672053797374656D0A0066
:1051B00032303A33373A3038000000004A616E200E
:1051C0002036203230323500202F207C205C2020F9
:1051D00020202025642E25642E2564206275696CAC
:1051E000642025732025730A00000000203230302F
:1051F00036202D203230323220436F707972696749
:1052000068742062792052542D546872656164205C
:105210007465616D0A000000002904BF002070471A
:105220002DE9F041033121F00303D0F834E00C2BD9
:1052300098BF0C239E4502D20020BDE8F081D0F833
:105240002880D0F830C0AEEB0305ACEB080400E0DA
:105250005468AC42F0D818F8041008EB0402C907EF
:10526000F6D1566804F10C07F11B9942F0D303F113
:105270001805A94204D2D0E90817331B0B4416E0E5
:1052800003F10C053B4408EB0301C1E901645360E1
:105290004C6820F001070EF10C018C4248F80370B5
:1052A0001CBF08EB04018B60D0E908176B189F4204
:1052B000036238BF436240F001016245116011D1C1
:1052C000036B1978C9070DD0C66A00BFB3421FBF70
:1052D000596808EB0103036318F8011018BF5FEA6F
:1052E000C171F3D102F10C00BDE8F081002808BFC4
:1052F000704710B5024652F80C1D21F001010B6BEE
:1053000011609A4238BF0A6350F808ECD1F828C0FF
:105310000B6AE644B2EB0E0423440B6217D09EF8EE
:105320000030DB0713D1CB6A9E4510D00B6B734561
:1053300008BF0A63DEF80440002340F8084CCEF8AA
:105340000030DEF80430A2EB0C0463449C6050F89B
:1053500004EC0CEB0E03934212D01C78E4070FD13F
:105360000C6B944208BF0B6350F8081C0022596074
:1053700050F8081C40F80C2C0CEB0100C0F808E0B9
:10538000BDE81040704700002DE9F0470A4422F0C4
:105390000306192E08D3CB1C23F0030404F13803B1
:1053A000A6F118079F4205D21BA0FFF7EDFB0020D6
:1053B000BDE8F08704F13B0121F00307A6EB0709E4
:1053C0008046204600213822A9F118054FF0000A36
:1053D000FFF778FC20460C214246FFF71BFD0CA18D
:1053E000C4E90517A9F10C0144F001023346204637
:1053F000C7E9004143F80C2DE5616563A762C7F872
:1054000008A0E36246E902112763BDE8F08700BF08
:10541000736D616C6C0000006D656D20696E697460
:105420002C206572726F7220626567696E206164FC
:10543000647265737320307825782C20616E642047
:10544000656E6420616464726573732030782578BA
:105450000A00000082B080B582B08C46CDE90423FA
:1054600004AB4FF0FF316246019300F07DFB02B0C8
:10547000BDE8804002B07047002848BF40420B287A
:1054800099BF04A151F8200046F60260C0F6000062
:10549000704700BFC86D0008E56D0008FA6D000890
:1054A000D26D0008106E0008DA6D0008EB6D000880
:1054B0000A6E0008E16D0008F26D0008CB6D00086F
:1054C000026E0008002100BF425C0131002AFBD1BE
:1054D000481E7047002A08BF704710B5C2F101038B
:1054E000421C00BF0C7802F8014C44B10133013179
:1054F000012B02F10102F5D1BDE810407047002BED
:10550000FAD0594204461046FAF739FF2046BDE862
:105510001040704780B50346033020F0030021F0AF
:1055200003010A1A04A01946FFF72EFF44F2641182
:10553000C2F20001086080BD686561700000000073
:1055400043F64C71C2F200010020088043F650710E
:10555000C2F200010A180A500830B0F5807F52608C
:10556000F8D144F25000C2F20000002101607047FF
:1055700070B544F25005C2F200052868FDF730FD11
:1055800043F65076C2F2000606EBC00050F8084C15
:1055900040F2B821A4F11400C2F200010860FAF749
:1055A0000FFED4E900124A6062686460116094F8EA
:1055B0002110246056F8312006EBC1018A4204D143
:1055C000616A2A6822EA01012960FAF7FDFD0321D8
:1055D00004F1080084F82010BDE87040FAF73DBEE1
:1055E00040F22010C2F20000C0E900007047000045
:1055F000704700002DE9F04383B00F4601460120BB
:105600001D461646FFF798FBD0B304462846FFF721
:10561000DBFA90B304F11401DDE90A98C4E905113D
:1056200023212A46C4E90876C4E90A05FFF74AFBA4
:1056300004F120030FCB1A4443F21903043AC0F6D5
:105640000003FFF763FA43F25502E061002704F11B
:105650004400C0F600022146234684F83590C4E990
:105660000E78C4F84080276384F83470C4E91C774E
:105670000097019700F0FEF903E02046FFF790FB4A
:105680000024204603B0BDE8F083000040F258013A
:10569000C2F200010A6840F8142F506008604160AF
:1056A0007047000000F0B0B840F25806C2F20006A1
:1056B0003568B5420ED0A5F11404FAF781FDD5E99D
:1056C00000124A606A681160C5E90055FAF77CFD6E
:1056D0001CB9EDE70024002CEAD0276F2046FFF725
:1056E000CBFB0546012802D12046FFF76FFB0FB127
:1056F0002046B847002DDBD1A06AFEF79DFF20466B
:10570000FFF74EFBD4E70000B0B586B004AC12A1A1
:1057100020460022FFF79EFE44F254024FF48071AF
:10572000C2F2000240F23C251F20CDE90021C2F266
:10573000000545F2A9624FF0200C0290C0F600026D
:10574000284621460023CDF80CC000F009F8284671
:1057500000F098F806B0B0BD7469646C652564000B
:105760002DE9F04782B00DF1280A16460A46DDF809
:1057700034909AE8800501211D460446FFF74AFB54
:1057800004F11400C4E90500384623214246C4E967
:105790000865C4E90A78FFF795FA04F120030FCBF6
:1057A0001A4443F21903043AC0F60003FFF7AEF9B6
:1057B00043F25502E061002704F14400C0F6000204
:1057C0002146234684F835A0C4E90E79C4F84090F8
:1057D000276384F83470C4E91C770097019700F0C0
:1057E00049F9002002B0BDE8F087000080B500F064
:1057F00075F8BDE8804000F007B8000040F2B8201E
:10580000C2F2000000687047F0B581B040F2B821E4
:10581000C2F200010C680090FAF7D2FC054694F839
:105820003400002100F005000128216313D1FAF7AC
:10583000C7FC06462046FFF751FC94F8340000F000
:10584000F800023084F8340004F1440000F070F9EC
:105850003046FAF7B9FC04F144066A4630460021A6
:10586000002700F0C7F8304600F01EF92846FAF786
:10587000ABFCFFF705FB206B023008BF2763206BF2
:1058800001B0F0BDB0B5044690F83500012101FA31
:1058900000F0A063022084F83400FAF791FC22465D
:1058A000A16952F8143F05465960A16904F144000A
:1058B0000B60A261126000F03BF92046FFF7CCFBC1
:1058C0002846FAF781FC40F2B820C2F200000068D6
:1058D000002818BFFFF7D4FA0020B0BD40EAE070FE
:1058E0007047000044F25810C2F200000068704790
:1058F00010B5FAF765FC44F25811C2F200010A68CB
:105900000446501C0860FFF779FF016C01390164FF
:1059100006D02046FAF758FCBDE8104000F012B857
:10592000C16B90F83420016442F0080180F8341013
:105930002046FAF749FCFFF7A3FABDE8104000F053
:1059400001B800002DE9F04383B001AECDE9016656
:10595000FFF7C8FF0546FAF733FC40F22017C2F202
:1059600000073C688046BC423ED04FF6FE79C7F641
:10597000FF7902E03C68BC4236D06069281A48458D
:1059800032D8D4E90010486060686460016014F89F
:105990000B0C246081075CBF00F0FC0004F80B0CCA
:1059A000019844602060D4E9021001946660884741
:1059B000FFF798FF01990546B142DBD0D4E900100A
:1059C000486060686460016014F80B1C246001F09A
:1059D00003000328CED1A4F1140001F0FE0104F865
:1059E0000B1C00F061F8C5E74046FAF7EDFB03B089
:1059F000BDE8F08370B514460E460546FAF7E0FBA5
:105A0000052E1BD8DFE806F003160C1106182168D6
:105A1000696213E0697AC9070CBF002101210CE01B
:105A2000697A01F0FD01697208E0697A41F00201CA
:105A3000697203E0696A00E0A96A2160FAF7C4FBB1
:105A4000002070BD10B50446FAF7BAFB2246A169E2
:105A500052F8143F5960A169A2610B60617A12602B
:105A600001F0FE016172FAF7AFFB2046FFF7AEF9D5
:105A7000002010BD2DE9F04115460A46DDE90687F4
:105A80000A211C460646FFF7C5F907F0FE007072B2
:105A9000002006F11401C6E90511C6E90754C6E95C
:105AA0000980BDE8F08100002DE9F0410446FAF7D5
:105AB00087FB264656F8141F8046726816F80B0CB2
:105AC0004A60726800F0FE0011603660766006F889
:105AD0000B0CFFF707FF40F220153169C2F20005F9
